{
  "address": "0x3FE133c5b1Aa156bF7D8Cf3699794d09Ef911ec1",
  "abi": [
    {
      "inputs": [
        {
          "internalType": "address",
          "name": "wethAddress",
          "type": "address"
        },
        {
          "internalType": "address",
          "name": "uniswapRouterAddress",
          "type": "address"
        }
      ],
      "stateMutability": "nonpayable",
      "type": "constructor"
    },
    {
      "inputs": [
        {
          "internalType": "address",
          "name": "",
          "type": "address"
        }
      ],
      "name": "balances",
      "outputs": [
        {
          "internalType": "uint256",
          "name": "",
          "type": "uint256"
        }
      ],
      "stateMutability": "view",
      "type": "function"
    },
    {
      "inputs": [
        {
          "internalType": "enum Arbrito.Borrow",
          "name": "borrow",
          "type": "uint8"
        },
        {
          "internalType": "uint256",
          "name": "amount",
          "type": "uint256"
        },
        {
          "internalType": "address",
          "name": "uniswapPair",
          "type": "address"
        },
        {
          "internalType": "address",
          "name": "balancerPool",
          "type": "address"
        },
        {
          "internalType": "address",
          "name": "uniswapToken0",
          "type": "address"
        },
        {
          "internalType": "address",
          "name": "uniswapToken1",
          "type": "address"
        },
        {
          "internalType": "uint256",
          "name": "uniswapReserve0",
          "type": "uint256"
        },
        {
          "internalType": "uint256",
          "name": "uniswapReserve1",
          "type": "uint256"
        },
        {
          "internalType": "uint256",
          "name": "balancerBalance0",
          "type": "uint256"
        },
        {
          "internalType": "uint256",
          "name": "balancerBalance1",
          "type": "uint256"
        }
      ],
      "name": "perform",
      "outputs": [],
      "stateMutability": "nonpayable",
      "type": "function"
    },
    {
      "inputs": [
        {
          "internalType": "uint256",
          "name": "",
          "type": "uint256"
        }
      ],
      "name": "tokens",
      "outputs": [
        {
          "internalType": "address",
          "name": "",
          "type": "address"
        }
      ],
      "stateMutability": "view",
      "type": "function"
    },
    {
      "inputs": [
        {
          "internalType": "address",
          "name": "sender",
          "type": "address"
        },
        {
          "internalType": "uint256",
          "name": "amount0",
          "type": "uint256"
        },
        {
          "internalType": "uint256",
          "name": "amount1",
          "type": "uint256"
        },
        {
          "internalType": "bytes",
          "name": "data",
          "type": "bytes"
        }
      ],
      "name": "uniswapV2Call",
      "outputs": [],
      "stateMutability": "nonpayable",
      "type": "function"
    },
    {
      "inputs": [],
      "name": "withdraw",
      "outputs": [],
      "stateMutability": "nonpayable",
      "type": "function"
    },
    {
      "stateMutability": "payable",
      "type": "receive"
    }
  ],
  "transactionHash": "0x3910e401ea18d5177d33827a981cd83ebfbefa8b5c4e7366955c616d55f31ca4",
  "args": [
    "0xC02aaA39b223FE8D0A0e5C4F27eAD9083C756Cc2",
    "0x7a250d5630B4cF539739dF2C5dAcb4c659F2488D"
  ],
  "solcInputHash": "a2e527d49059a0d115b547a8cad93932",
  "bytecode": "0x60e060405234801561001057600080fd5b5060405161135d38038061135d8339818101604052604081101561003357600080fd5b508051602090910151606081811b6001600160601b031990811660a05283821b16608052339081901b60c0526001600160a01b0392831692909116906112bc6100a160003980610a9c52508061073152806107985250806105e2528061068c52806109fb52506112bc6000f3fe60806040526004361061005e5760003560e01c80633ccfd60b116100435780633ccfd60b146101645780634f64b2be1461017957806375e140ef146101cc57610065565b806310d1e85c1461006a57806327e235e31461011257610065565b3661006557005b600080fd5b34801561007657600080fd5b506101106004803603608081101561008d57600080fd5b73ffffffffffffffffffffffffffffffffffffffff82351691602081013591604082013591908101906080810160608201356401000000008111156100d157600080fd5b8201836020820111156100e357600080fd5b8035906020019184600183028401116401000000008311171561010557600080fd5b509092509050610250565b005b34801561011e57600080fd5b506101526004803603602081101561013557600080fd5b503573ffffffffffffffffffffffffffffffffffffffff166105a9565b60408051918252519081900360200190f35b34801561017057600080fd5b506101106105bb565b34801561018557600080fd5b506101a36004803603602081101561019c57600080fd5b5035610aed565b6040805173ffffffffffffffffffffffffffffffffffffffff9092168252519081900360200190f35b3480156101d857600080fd5b5061011060048036036101408110156101f057600080fd5b5060ff8135169060208101359073ffffffffffffffffffffffffffffffffffffffff60408201358116916060810135821691608082013581169160a08101359091169060c08101359060e081013590610100810135906101200135610b24565b6000806000806000868660a081101561026857600080fd5b5073ffffffffffffffffffffffffffffffffffffffff81358116965060208201358116955060408201351693506060810135925060800135905060008080808c156102c757508b9250859050866102c08486886110a9565b92506102dd565b508a9250869050856102da8487876110a9565b92505b6102e98e8a83876110d1565b604080517f8201aa3f00000000000000000000000000000000000000000000000000000000815273ffffffffffffffffffffffffffffffffffffffff8381166004830152602482018790528481166044830152606482018690527fffffffffffffffffffffffffffffffffffffffffffffffffffffffffffffffff60848301528251600093918d1692638201aa3f9260a480830193919282900301818787803b15801561039557600080fd5b505af11580156103a9573d6000803e3d6000fd5b505050506040513d60408110156103bf57600080fd5b5051604080517fa9059cbb00000000000000000000000000000000000000000000000000000000815233600482015260248101879052905191925073ffffffffffffffffffffffffffffffffffffffff85169163a9059cbb916044808201926020929091908290030181600087803b15801561043a57600080fd5b505af115801561044e573d6000803e3d6000fd5b505050506040513d602081101561046457600080fd5b50516104d157604080517f08c379a000000000000000000000000000000000000000000000000000000000815260206004820152600e60248201527f5061796261636b206661696c6564000000000000000000000000000000000000604482015290519081900360640190fd5b73ffffffffffffffffffffffffffffffffffffffff831660009081526001602052604090205461056957600080546001810182559080527f290decd9548b62a8d60345a988386fc84ba6bc95484008f6362f93160ef3e5630180547fffffffffffffffffffffffff00000000000000000000000000000000000000001673ffffffffffffffffffffffffffffffffffffffff85161790555b73ffffffffffffffffffffffffffffffffffffffff9092166000908152600160205260409020805493909203929092019055505050505050505050505050565b60016020526000908152604090205481565b604080516002808252606080830184529260208301908036833701905050905060003090507f00000000000000000000000000000000000000000000000000000000000000008260018151811061060e57fe5b602002602001019073ffffffffffffffffffffffffffffffffffffffff16908173ffffffffffffffffffffffffffffffffffffffff16815250506000805b6000548110156109ed57600080828154811061066457fe5b60009182526020909120015473ffffffffffffffffffffffffffffffffffffffff90811691507f0000000000000000000000000000000000000000000000000000000000000000168114156106e35773ffffffffffffffffffffffffffffffffffffffff811660009081526001602052604090205492909201916109bd565b80856000815181106106f157fe5b602002602001019073ffffffffffffffffffffffffffffffffffffffff16908173ffffffffffffffffffffffffffffffffffffffff1681525050610796847f000000000000000000000000000000000000000000000000000000000000000083600160008673ffffffffffffffffffffffffffffffffffffffff1673ffffffffffffffffffffffffffffffffffffffff168152602001908152602001600020546110d1565b7f000000000000000000000000000000000000000000000000000000000000000073ffffffffffffffffffffffffffffffffffffffff166338ed1739600160008473ffffffffffffffffffffffffffffffffffffffff1673ffffffffffffffffffffffffffffffffffffffff1681526020019081526020016000205460008888426040518663ffffffff1660e01b815260040180868152602001858152602001806020018473ffffffffffffffffffffffffffffffffffffffff168152602001838152602001828103825285818151815260200191508051906020019060200280838360005b8381101561089457818101518382015260200161087c565b505050509050019650505050505050600060405180830381600087803b1580156108bd57600080fd5b505af11580156108d1573d6000803e3d6000fd5b505050506040513d6000823e601f3d9081017fffffffffffffffffffffffffffffffffffffffffffffffffffffffffffffffe0168201604052602081101561091857600080fd5b810190808051604051939291908464010000000082111561093857600080fd5b90830190602082018581111561094d57600080fd5b825186602082028301116401000000008211171561096a57600080fd5b82525081516020918201928201910280838360005b8381101561099757818101518382015260200161097f565b505050509050016040525050506001815181106109b057fe5b6020026020010151830192505b73ffffffffffffffffffffffffffffffffffffffff1660009081526001602081905260408220919091550161064c565b506109f960008061124c565b7f000000000000000000000000000000000000000000000000000000000000000073ffffffffffffffffffffffffffffffffffffffff16632e1a7d4d826040518263ffffffff1660e01b815260040180828152602001915050600060405180830381600087803b158015610a6c57600080fd5b505af1158015610a80573d6000803e3d6000fd5b505060405173ffffffffffffffffffffffffffffffffffffffff7f000000000000000000000000000000000000000000000000000000000000000016925083156108fc02915083906000818181858888f19350505050158015610ae7573d6000803e3d6000fd5b50505050565b60008181548110610afd57600080fd5b60009182526020909120015473ffffffffffffffffffffffffffffffffffffffff16905081565b6000808973ffffffffffffffffffffffffffffffffffffffff16630902f1ac6040518163ffffffff1660e01b815260040160606040518083038186803b158015610b6d57600080fd5b505afa158015610b81573d6000803e3d6000fd5b505050506040513d6060811015610b9757600080fd5b5080516020909101516dffffffffffffffffffffffffffff918216935016905060008c6001811115610bc557fe5b14610bdf57858211158015610bda5750848110155b610bef565b858210158015610bef5750848111155b610c5a57604080517f08c379a000000000000000000000000000000000000000000000000000000000815260206004820152601960248201527f556e6973776170207265736572766573206d69736d6174636800000000000000604482015290519081900360640190fd5b60008973ffffffffffffffffffffffffffffffffffffffff1663f8b2cb4f8a6040518263ffffffff1660e01b8152600401808273ffffffffffffffffffffffffffffffffffffffff16815260200191505060206040518083038186803b158015610cc357600080fd5b505afa158015610cd7573d6000803e3d6000fd5b505050506040513d6020811015610ced57600080fd5b5051604080517ff8b2cb4f00000000000000000000000000000000000000000000000000000000815273ffffffffffffffffffffffffffffffffffffffff8b811660048301529151929350600092918d169163f8b2cb4f91602480820192602092909190829003018186803b158015610d6557600080fd5b505afa158015610d79573d6000803e3d6000fd5b505050506040513d6020811015610d8f57600080fd5b5051905060008e6001811115610da157fe5b14610dbb57858210158015610db65750848111155b610dcb565b858211158015610dcb5750848110155b610e3657604080517f08c379a000000000000000000000000000000000000000000000000000000000815260206004820152601a60248201527f42616c616e6365722062616c616e636573206d69736d61746368000000000000604482015290519081900360640190fd5b50506040805173ffffffffffffffffffffffffffffffffffffffff808c166020830152808b1682840152891660608201526080810184905260a08082018490528251808303909101815260c090910190915260008d6001811115610e9657fe5b1415610f9d578a73ffffffffffffffffffffffffffffffffffffffff1663022c0d9f8d600030856040518563ffffffff1660e01b8152600401808581526020018481526020018373ffffffffffffffffffffffffffffffffffffffff16815260200180602001828103825283818151815260200191508051906020019080838360005b83811015610f31578181015183820152602001610f19565b50505050905090810190601f168015610f5e5780820380516001836020036101000a031916815260200191505b5095505050505050600060405180830381600087803b158015610f8057600080fd5b505af1158015610f94573d6000803e3d6000fd5b5050505061109a565b8a73ffffffffffffffffffffffffffffffffffffffff1663022c0d9f60008e30856040518563ffffffff1660e01b8152600401808581526020018481526020018373ffffffffffffffffffffffffffffffffffffffff16815260200180602001828103825283818151815260200191508051906020019080838360005b8381101561103257818101518382015260200161101a565b50505050905090810190601f16801561105f5780820380516001836020036101000a031916815260200191505b5095505050505050600060405180830381600087803b15801561108157600080fd5b505af1158015611095573d6000803e3d6000fd5b505050505b50505050505050505050505050565b60006103e8838502026103e5858403028082816110c257fe5b04600101925050509392505050565b808273ffffffffffffffffffffffffffffffffffffffff1663dd62ed3e86866040518363ffffffff1660e01b8152600401808373ffffffffffffffffffffffffffffffffffffffff1681526020018273ffffffffffffffffffffffffffffffffffffffff1681526020019250505060206040518083038186803b15801561115757600080fd5b505afa15801561116b573d6000803e3d6000fd5b505050506040513d602081101561118157600080fd5b50511015610ae7578173ffffffffffffffffffffffffffffffffffffffff1663095ea7b3847fffffffffffffffffffffffffffffffffffffffffffffffffffffffffffffffff6040518363ffffffff1660e01b8152600401808373ffffffffffffffffffffffffffffffffffffffff16815260200182815260200192505050602060405180830381600087803b15801561121a57600080fd5b505af115801561122e573d6000803e3d6000fd5b505050506040513d602081101561124457600080fd5b505050505050565b508054600082559060005260206000209081019061126a919061126d565b50565b5b80821115611282576000815560010161126e565b509056fea2646970667358221220d61e900418d240ebe8b85076b5cdf02b241c8c840b3e8d33a2ba5041582a02b564736f6c63430007050033",
  "devdoc": {
    "kind": "dev",
    "methods": {},
    "version": 1
  },
  "userdoc": {
    "kind": "user",
    "methods": {},
    "version": 1
  },
  "storageLayout": {
    "storage": [
      {
        "astId": 13,
        "contract": "contracts/Arbrito.sol:Arbrito",
        "label": "tokens",
        "offset": 0,
        "slot": "0",
        "type": "t_array(t_address)dyn_storage"
      },
      {
        "astId": 17,
        "contract": "contracts/Arbrito.sol:Arbrito",
        "label": "balances",
        "offset": 0,
        "slot": "1",
        "type": "t_mapping(t_address,t_uint256)"
      }
    ],
    "types": {
      "t_address": {
        "encoding": "inplace",
        "label": "address",
        "numberOfBytes": "20"
      },
      "t_array(t_address)dyn_storage": {
        "base": "t_address",
        "encoding": "dynamic_array",
        "label": "address[]",
        "numberOfBytes": "32"
      },
      "t_mapping(t_address,t_uint256)": {
        "encoding": "mapping",
        "key": "t_address",
        "label": "mapping(address => uint256)",
        "numberOfBytes": "32",
        "value": "t_uint256"
      },
      "t_uint256": {
        "encoding": "inplace",
        "label": "uint256",
        "numberOfBytes": "32"
      }
    }
  }
}